:100000000C94F6080C9408090C9408090C9408093F
:100010000C9408090C9408090C9408090C94A10983
:100020000C9408090C9408090C9408090C9408090C
:100030000C9408090C9408090C9408090C940809FC
:100040000C9457090C9408090C9408090C9408099D
:100050000C9408090C9408090C9408090C940809DC
:100060000C9408090C940809020202020000020024
:100070000E000000000000000C000000081010102E
:10008000187070707070707074705050D8D0D0D07C
:10009000D4D0D0D0D0D0D0D0D4D1D1D15D41414175
:1000A000414141414D414141494141414741416007
:1000B0006C2220202E22202022222222263232329E
:1000C0003632323236B2B2B2B2B232323E3232B2FC
:1000D000B2B2B2B2BE12121117139393978383C3B5
:1000E000CBC3C3C3CBC3C1C1C9C1C1C1C5C1C1C1D8
:1000F000414141414D414141414040406C6070703F
:10010000787070707C7070707470707070707070D7
:100110003430303038303030383030B0B8B0B0B043
:10012000A4A0A0A0848080808C8080808C82828229
:100130008C8082828E8381838F8383838783838372
:1001400087D3D3D3D7D3D353535373737773737383
:100150007B73737373737373737373737773737363
:100160007D7373716D6160606C6262626260606019
:100170006460602000000000080000000000000033
:1001800004000000040090901C10101090909090BB
:1001900018101010909090101C1010101C3030305F
:1001A00034B0B0B03430F0F0F4F0E0E0E4E0E0601F
:1001B00068E0E0E0E0E2E2E2E6E0E2E0E6E3E3E39A
:1001C000E36163E3E7E343434F4141414353535307
:1001D00057535353575353531313131317131313E3
:1001E0001B131311191313111111131111111113E1
:1001F0001B3333A1A3A1A1A12121A1A1A9A0A0A04A
:10020000A0A020202820A0A0A02020A0E0E060E066
:10021000E0E0E0E0E860607078F0F0F0D850505036
:1002200058505050505050505050505058505050BE
:1002300050505050505050505C50505054404240DC
:100240000002000000002020202222222222202260
:100250002A20222222202222262220222622202276
:100260002222A2B2B8B0B0B2B2B2B23232B2B0B29E
:10027000B0B03290909252515151D1D1D9D1515107
:10028000515153D1D95151D3D35141C1C1C1C1C130
:10029000C9C1C1C14141C1C1C9C1C141C9C1C16116
:1002A00069E1E1E1616161616161616129212121AE
:1002B000253131313531313139B1B131313131312E
:1002C00031B13230B0B0303034303232141010101E
:1002D0001010101010909212109282020000000272
:1002E0008A020202CE404040404240424AC2C242DC
:1002F0004040404048C2424248406060EA6262E298
:10030000EA6070707070F0F0707072707A72707075
:10031000F0F070F0F07070F0F270F0B03C3030300F
:100320003430303030B0B030B09010000000008079
:100330008202000000000000000000000400000035
:1003400000000000000000000000000000000000AD
:100350000000000000505050587270707070707043
:10036000707070727A727270F8F0F0F27A70707069
:10037000F0F0F070707072F2F07070F2F2F0F0E085
:10038000E8E26060E0E0E2E2EAC0C2C2C2420082AB
:100390008282808280808080808000020000000055
:1003A00000000000000000000800101010101010E5
:1003B0001810101012101010103030303030303053
:1003C00030303030303030707070707070707070ED
:1003D00070707070707060606060606060606060BD
:1003E0006860606060606060686060C0C8C0C0C015
:1003F000C040404040C0C040404240C2C8C04042EF
:10040000C2C2101098909292121210101010101078
:100410009A9290909890909012129290B0B0303042
:1004200038303030383030303A30323030302022CE
:1004300020A0A02028A0A2A2A020202020606060F0
:100440006060626068E0E0E0E0E060606060E0E022
:10045000404040404040404048404040585050504C
:100460005850D0D050505050008C0800000100006F
:100470000112001AD89C27A8FC9C229DD89C27A872
:10048000FC9C479D709D8D9D5E9E1D9ECB9DB09E4C
:10049000439FBD9F50A0CAA0EEA011A1EEA035A120
:1004A000EEA059A1EEA07DA1A1A17DA12FA2C4A182
:1004B000A1A1E8A10CA252A234A3E0A299A281A317
:1004C00014A49EA431A59CA5E3A59CA53FA688A63F
:1004D0001DA788A6B2A79CA5E3A59CA53FA688A6B4
:1004E0001DA788A64CA8BCA8C3A8F3A8F3A8F3A886
:1004F000F3A8F3A8F3A826A942A947A947A947A9A1
:10050000BD008080038203830387038C038E038FE7
:1005100003930398039A039B039F03A403A603A7D3
:1005200003AB0300BD008089038203830387038C30
:10053000038E038F9503930398039A039B039F03F2
:10054000A48903A603A703AB0300BD008088038230
:1005500003830387038C038E038F03930398940311
:100560009A039B039F03A403A603A703AB0300BD49
:10057000008088038203830387038C038E038F0329
:1005800093039894039A039B77029F03A47702A690
:1005900003A77702AB7702008C807617BE7A02BE83
:1005A0007B02BE7C02BE7702BE7702BE7702BE77B8
:1005B00002BE770200BD009C807603BE8C04BE8024
:1005C0007703BE8004BE8C7603BE8076039D807761
:1005D00003BE8C049F807603BE80049D8C77039CB1
:1005E0008004BE8C76039A80760398807703BE8C55
:1005F000760300BD009A887603BE88049894779AA3
:10060000019B02988804BE887603BE947603BE8858
:100610007703BE9404A18976019C02988902A40202
:10062000A19577019C02988902A402A08876019B7B
:100630000298947601A202A08877019B0298947791
:1006400001A2770100BD009F807603BE8C04BE80AE
:100650007703BE8004BE8C7603BE8076039F8077CE
:10066000A001A202BE8C049F807603BE80049D8CF4
:1006700077039B8004BE8C76039A807603988077FC
:1006800003BE8C760300BD009A807603BE8C04986E
:1006900080779A019B02988004BE8C7603BE807698
:1006A00003BE807703BE8C04A18976019C029889E1
:1006B00002A402A19577019C02988902A402A08855
:1006C00076019B0298947601A202A08877019B0292
:1006D00098947701A2770100BD009F80769C019FCE
:1006E000019C019F8C019C019F019C019F80779C34
:1006F000019F019C019F80019C019F019C019F8C97
:10070000769C019F019C019F80769C019F019C012A
:100710009F80779D019F019D019F8C019D019F01FD
:100720009D01A480769F01A4019F01A480019F01E7
:10073000A4019F019F8C779D019F019D019F8001D6
:100740009C019F019C019F8C769C019F019C019FB5
:1007500080769A019F019A019C807798019C01986C
:10076000019C8C7698019C01980100BD009F8076C9
:100770009A019F019A019F8C019A019F019A019F02
:1007800080779B019F019B019F800198019F0198A9
:10079000019F8C7698019F0198019F807698019F18
:1007A0000198019F807798019F0198019F8C019883
:1007B000019F019801A18976019C02988902A402F7
:1007C000A19577019C02988902A402A08876019BDA
:1007D0000298947601A202A08877019B02989477F0
:1007E00001A2770100BD00A280769F01A2019F01B6
:1007F000A28C019F01A2019F01A280779F01A2010B
:100800009F01A280019F01A2019F01A28C769F01FE
:10081000A2019F01A280769F01A2019F01A680777D
:10082000A201A601A201A68C01A201A601A201A219
:1008300080769F01A2019F01A280019F01A2019FDA
:1008400001A28C779D01A2019D019F80019B019FC8
:10085000019B019F8C769B019F019B019F80769A53
:10086000019F019A019F807798019F0198019F8CB9
:100870007698019F01980100BD00A088769A01A09A
:10088000019A01A088019A01A0019A01A094779B86
:1008900001A0019B01A088019801A0019801A088F6
:1008A000769801A0019801A094769801A001980182
:1008B000A088779801A0019801A094019801A00157
:1008C0009801A18976019C02988902A402A19577DA
:1008D000019C02988902A402A08876019B02989448
:1008E0007601A202A08877019B0298947701A277F3
:1008F0000100BD008080768201830187018C018E1A
:10090000018F01930198019A019B019F01A401A607
:1009100001A701AB0100BD00B001AB01A701A60119
:10092000A4019F019B019A01980193018F018E01FF
:100930008C0187018301820100BD0080800182015A
:10094000830187018C018E018F01930198019A0127
:100950009B019F01A401A601A701AB0100BD00807E
:1009600088018201830187018C018E018F0193012F
:1009700098019A019B019F01A401A601A701AB0167
:1009800000BD008085018201830187018C018E01F9
:100990008F01930198019A019B019F01A401A60177
:1009A000A701AB0100BD028080768201830187012F
:1009B0008C018E018F01930198019A019B019F0187
:1009C000A401A601A701AB0100BD02B076AB01A74F
:1009D00001A601A4019F019B019A01980193018F37
:1009E000018E018C7687018301820100BD0280881F
:1009F000768201830187018C018E018F019301981A
:100A0000019A019B019F01A401A601A701AB01006E
:100A1000BD028085768201830187018C018E018F62
:100A200001930198769A019B019F01A401A601A759
:100A300001AB0100BD02B077AB01A701A601A4760E
:100A40009F019B019A01987793018F018E018C770A
:100A500087018377820100BD02B076AB01A701A6B2
:100A600001A4019F019B019A01980193018F018EBE
:100A7000018C0187018301820100BD00938076977C
:100A8000019802BE8004BE8C7703BE8004BE8C76C3
:100A900003BE807603BE807703BE8C049784760302
:100AA000BE8404BE90770398840197019801970152
:100AB00093907603BE847603BE847703BE9076035C
:100AC00000BD0095857697019802BE8504BE91779A
:100AD00003BE8504BE917603BE857603BE8577038B
:100AE000939176039C8776039387049A9377039375
:100AF0008704BD0098937603938777039A877703DB
:100B000093937701BE770100BD009880769A019C8F
:100B100002BE8004BE8C7703BE8004BE8C76039830
:100B200080769C0198019C019880779C0198019C9B
:100B300001988C019C0198019C019C84769D019FE9
:100B400002BE8404BE9077039D8404BE907603BEEB
:100B50008476039C847703BE90760300BD00918564
:100B60007693019502BE8504BE917703BE8504BECF
:100B7000917603BE857603BE857703BE9176039793
:100B8000877603BE8704BE937703BE8704BD029FAA
:100B9000937601A302A4877701A602A3877701A415
:100BA00002A6937701AB770100BD009C8076980187
:100BB0009C0198019C807898019C0198019C8C77FD
:100BC00098019C0198019C807898019C0198019C57
:100BD0008C7698019C0198019C807698019C0198E4
:100BE000019C807798019C0198019C8C7898019CCD
:100BF0000198019A847697019A0197019A847897CF
:100C0000019A0197019A907797019A0197019A8426
:100C10007897019A01970197907693019701930134
:100C200097847693019701930197847793019701B5
:100C3000930197907693019701930100BD009885E9
:100C4000769501980195019885789501980195010F
:100C5000989177950198019501988578950198016B
:100C60009501989176950198019501988576950161
:100C7000980195019885779501980195019891764D
:100C80009501980195019A877697019A0197019AA3
:100C9000877897019A0197019A937797019A01971C
:100CA000019A877897019A019701BD029F93760177
:100CB000A302A4877701A602A3877701A402A693C3
:100CC0007701AB770100BD009880769C0198019C6C
:100CD000019880789C0198019C01988C779C0198E0
:100CE000019C019880789C0198019C01988C769CCD
:100CF0000198019C019880769C0198019C01988044
:100D0000779C0198019C01988C789C0198019C012A
:100D10009F847697019F0197019F847897019F0197
:100D200097019F907797019F0197019D8478970184
:100D30009D0197019D907697019D0197019D847675
:100D400097019D0197019C847797019C0197019CD5
:100D5000907697019C01970100BD009885769501DA
:100D6000980195019885789501980195019891775A
:100D700095019801950198857895019801950198BC
:100D80009176950198019501988576950198019540
:100D900001988577950198019501939176039C8739
:100DA0007603938778039A93770393877803BD003C
:100DB00098937603938777039A87770393937701C2
:100DC000BE770100BD0091857695019802BE910421
:100DD000BE857703BE9104BE857603BE917603BEC1
:100DE000857703BE910497877603BE9304BE877709
:100DF00003BE93019803BD00BE877603BE937703BD
:100E0000BE8777019A02BE93760300BD0098807674
:100E10009A019C02BE8C04BE8077039A8C019C01CF
:100E20009A019C019A80769C019A019C019A8C7689
:100E30009C039A807703BE8C029C019A0195897667
:100E400097019802BE9504BE897703979504BD006B
:100E5000BE897603BE95770298019789779503BE80
:100E6000957701BE770100BD009880769A019C02BB
:100E7000BE8C04BE807703BE8C04BE807603BE8C1D
:100E800076039A807703988C049889769A019C025D
:100E90008995049C8977039A9504898976039A95A4
:100EA00077039C897703BD0095957701BE77010094
:100EB000BD0095857698019501980195910198015D
:100EC0009501980195857798019501980195910173
:100ED000980195019801958576980195019801955D
:100EE00091769801950198019585779801950198DB
:100EF000019591019801950198019787769A01973C
:100F0000019A019793019A0197019A019787779A1D
:100F10000197019A019893019A0198019A01BD00E5
:100F20009887769A0198019A019893779A01980187
:100F30009A019887779A019A019F019A93769F0167
:100F40009A019F0100BD009C80769F019C019F013A
:100F50009C8C019F019C019F019C80779F019C01BB
:100F60009F019C8C019F019C019F019C80769F01A9
:100F70009C019F019C8C769F019C019F019A807728
:100F80009F019A019F019A8C019F019A019F0198EC
:100F900089769F0198019F019895019F0198019F73
:100FA000019889779F0198019F019795019C01976E
:100FB000019C01BD009789769C0197019C01979542
:100FC000779C0197019C019589779C0195019C0173
:100FD0009595779C0195779C0100BD009C80769F3C
:100FE000019C019F019C8C019F019C019F019C80A1
:100FF000779F019C019F019C8C019F019C019F0197
:101000009C80769F019C019F019C8C769F019C0196
:101010009F019A8077018002988C028C029C8976CD
:1010200001890289950295029C89770189029A9526
:101030000295028989760189029A95770195029C29
:101040008977018902BD00BE95770195770100BDC2
:1010500000808C038203830387038C038E038F033A
:1010600093039880039A039B039F03A403A603A7FB
:1010700003AB0300BD009880769F0198019F019803
:101080008C019F0198019F019880779F0198019F93
:1010900001988C019F0198019F019880769F01988B
:1010A000019F01988C769F0198019F019880779805
:1010B000019F0198019F8C0198019F0198019F80D9
:1010C000768003BE8C7703BE8004BE8C7703BE801F
:1010D0007703BE8C7703BE807703BD00BE8C77019B
:1010E000BE770100BD008080765F00BD0080038276
:1010F0000383038780038C82038E83038F8703938C
:101100008C03988E039A8F039B93039F9803A49A52
:1011100003A69B03A79F03ABA40300BD0080A60307
:1011200082A70383AB038780038C82038E83038FA4
:101130008703938C03988E039A8F039B93039F9846
:1011400003A49A03A69B03A79F03ABA40300BD00BF
:1011500080807611BE7A01BE7B01BE7C01BE770124
:10116000BE7701BE7701BE770100BCBC760F00BC24
:10117000BC3000B200BD00C800D400E100EE00FCAD
:10118000000B011B012C013E01510165017A019107
:1011900001A901C201DD01F9011702370259027DDF
:1011A00002A302CB02F502220352038503BA03F322
:1011B000032F046F04B204FA0446059605EB0545B7
:1011C00006A5060A077507E7075F08DE086509F444
:1011D000098C0A2C0BD70B8B0C4A0D140EEA0ECE81
:1011E0000FBE10BD11CB12E91318150011241FBE3C
:1011F000CFEFD8E0DEBFCDBF21E0A0E0B1E001C07D
:101200001D92A732B207E1F70E943D0A0C94BD0B74
:101210000C9400003FB7F89480910501909106016D
:10122000A0910701B091080126B5A89B05C02F3FEA
:1012300019F00196A11DB11D3FBFBA2FA92F982FFC
:101240008827820F911DA11DB11DBC01CD0142E077
:10125000660F771F881F991F4A95D1F708956091EF
:101260000B0170910C0120910F01822F90E0FB0186
:10127000E80FF91F44910196FB01E80FF91F8491D3
:1012800090E0982F8827840F911D80549C4990935B
:101290001101809310012E5F20930F0180910D01A9
:1012A000281720F080910E0180930F0108951F925E
:1012B0000F920FB60F9211242F933F938F939F930A
:1012C000AF93BF938091010190910201A09103011E
:1012D000B09104013091000123E0230F2D3720F459
:1012E0000196A11DB11D05C026E8230F0296A11D80
:1012F000B11D209300018093010190930201A093FE
:101300000301B09304018091050190910601A09121
:101310000701B09108010196A11DB11D809305013F
:1013200090930601A0930701B0930801BF91AF917C
:101330009F918F913F912F910F900FBE0F901F9013
:1013400018951F920F920FB60F9211242F934F935F
:101350005F938F939F93EF93FF9380910A018BB9D3
:101360008091150190911601892B49F0809115010A
:101370009091160101979093160180931501209189
:101380001201211152C020910901222379F14091CB
:101390001B0150911C018091250190912601840F21
:1013A000951F90931C0180931B018417950728F4C7
:1013B00090912201905890932201409119015091EF
:1013C0001A018091230190912401840F951F90931D
:1013D0001A01809319018417950728F4909122012E
:1013E0009058909322018091220118C040911701DA
:1013F000509118018091200190912101840F951F37
:1014000090931801809317018417950728F4909101
:101410001F01905890931F0180911F0180930A0132
:1014200081E08227809309011CC080911301909173
:101430001401FC01F695E795E859FF4FE491E2238A
:1014400021F020E820930A0102C010920A010196BF
:1014500090931401809313018115984010F010921D
:101460001201FF91EF919F918F915F914F912F9179
:101470000F900FBE0F901F901895789484B58260DE
:1014800084BD84B5816084BD85B5826085BD85B528
:10149000816085BD80916E00816080936E001092A6
:1014A0008100809181008260809381008091810021
:1014B00081608093810080918000816080938000B2
:1014C0008091B10084608093B1008091B000816010
:1014D0008093B00080917A00846080937A0080913C
:1014E0007A00826080937A0080917A008160809394
:1014F0007A0080917A00806880937A001092C1000F
:10150000F89410920F01E8E6F4E0E491E0930E0104
:10151000E9E6F4E0E491E0930D01EAE6F4E0849179
:10152000EBE6F4E0E491F0E0FE2FEE27E80FF11D8A
:10153000E459FB4FF0930C01E0930B0184E090E041
:1015400090931E0180931D0110920A0110921601C2
:10155000109215010E942F091092090110921C018E
:1015600010921B0110921A0110921901109226017B
:10157000109225011092240110922301109218015B
:101580001092170110922101109220011092220155
:1015900010921F0110921401109213011092120167
:1015A000579A1092B0001092B1001092B200809140
:1015B000B00082608093B0008091B100826080931F
:1015C000B1008091700082608093700089E2809306
:1015D000B300789411E0C0E0D8E000E02091100161
:1015E00030911101F901E859FB4F4491F90131960D
:1015F000F0931101E0931001411103C00E942F09E3
:10160000EDCF842F47FF7FC08F738D33D1F018F457
:101610008C3339F028C08E3309F4ADC08F33F1F22A
:1016200022C0011109C010922601109225011092CA
:1016300024011092230159C010922101109220011F
:101640005FC0E859FB4FE4912E5F3F4F309311018B
:1016500020931001F0E0EE0FFF1F3496F0931E016F
:10166000E0931D01BBCFE82FF0E0EE0FFF1FED5818
:10167000FE4E24913196849190E0982F8827820F16
:10168000911D011135C060911D0170911E01FB017A
:10169000E759FB4F5491FB01E659FB4F249190937E
:1016A000260180932501FB01E859FB4FE49130E0CE
:1016B000322F2227250F311D02C0880F991FEA956E
:1016C000E2F7280F391F309324012093230146FFAE
:1016D00052C010921C0110921B01FB01E559FB4FF7
:1016E000E49110921901E0931A011092220143C073
:1016F00010921801109217019093210180932001FC
:1017000010921F0138C090E0463750F4982F882778
:10171000990F990F990F90931601809315011FC08F
:10172000109214011092130186579109212F01C0C4
:10173000220F8A95EAF720931201D0931601C093E5
:1017400015010DC00E940A09DC01CB018C199D090D
:10175000AE09BF09883E9340A105B10598F3809179
:10176000150190911601892B09F437CF0E940A09BF
:0E1770006B017C01E7CF01E031CFF894FFCF91
:107E0000112484B714BE81FFF0D085E080938100F7
:107E100082E08093C00088E18093C10086E0809377
:107E2000C20080E18093C4008EE0C9D0259A86E02C
:107E300020E33CEF91E0309385002093840096BBD3
:107E4000B09BFECF1D9AA8958150A9F7CC24DD24C4
:107E500088248394B5E0AB2EA1E19A2EF3E0BF2EE7
:107E6000A2D0813461F49FD0082FAFD0023811F036
:107E7000013811F484E001C083E08DD089C08234E0
:107E800011F484E103C0853419F485E0A6D080C0E4
:107E9000853579F488D0E82EFF2485D0082F10E0AE
:107EA000102F00270E291F29000F111F8ED06801E7
:107EB0006FC0863521F484E090D080E0DECF843638
:107EC00009F040C070D06FD0082F6DD080E0C81688
:107ED00080E7D80618F4F601B7BEE895C0E0D1E017
:107EE00062D089930C17E1F7F0E0CF16F0E7DF06D8
:107EF00018F0F601B7BEE89568D007B600FCFDCFD4
:107F0000A601A0E0B1E02C9130E011968C91119780
:107F100090E0982F8827822B932B1296FA010C0160
:107F200087BEE89511244E5F5F4FF1E0A038BF0790
:107F300051F7F601A7BEE89507B600FCFDCF97BE46
:107F4000E89526C08437B1F42ED02DD0F82E2BD052
:107F50003CD0F601EF2C8F010F5F1F4F84911BD097
:107F6000EA94F801C1F70894C11CD11CFA94CF0C13
:107F7000D11C0EC0853739F428D08EE10CD085E9AC
:107F80000AD08FE07ACF813511F488E018D01DD067
:107F900080E101D065CF982F8091C00085FFFCCF94
:107FA0009093C60008958091C00087FFFCCF809118
:107FB000C00084FD01C0A8958091C6000895E0E648
:107FC000F0E098E1908380830895EDDF803219F02E
:107FD00088E0F5DFFFCF84E1DECF1F93182FE3DFCA
:107FE0001150E9F7F2DF1F91089580E0E8DFEE27F6
:047FF000FF270994CA
:027FFE00040479
:0400000300007E007B
:00000001FF
