:020000020000FC
:060000006EC032C03FC0DB
:1000160050C0000101010202030506090D11161D5B
:10002600242D000001010101010102020202030365
:100036000505060607090B0D0F111316191D2024B9
:10004600282D070707070404040401070305000613
:100056000204FF0FFF0FFF0F1FFF1F1F1FFFFF0FE2
:10006600FFFF839907C091BA54BA8299FECF74BA3A
:1000760071BA1895E3B350A090A88ABE1895C3B27A
:10008600829912C050B2DFB65820C5285C2C509415
:1000960050A29080C920952C982090AAC08AED3055
:1000A60009F43068DFBE1895EC2D50A090A88ABEE2
:1000B6001895CCB0E4FF06C0C7FC02C0EC2D18951D
:1000C600E0E11895DFB65080C520C08AED3009F40E
:1000D6003068E0E1DFBE189500B7026000BF0FE5AB
:1000E6000DBF04E00EBF479A772400EC802E04E093
:1000F600A02E0FE1202E0FEF502E982CFF2420E18A
:10010600E0E1F1E080A2008B71922A95D9F7B2E086
:10011600A0E1E8E4F0E020E1C0D0A0E2E8E1F0E010
:1001260020E1BBD0A0E3E8E2F0E020E2B6D0AA27C7
:10013600B1E0E8E5F0E020E1B0D0F1E0D2E06F2EEA
:100146007FBA7EBAE09A0DB3071569F0002700BDA5
:1001560006E800BD02E00BB900E90AB903E00EBBF0
:10016600E09A2DB329B97BBC7ABC79BC78BCB99A24
:10017600BA9A02EA0FBD09E10EBDDEBBE09A2DB3C5
:1001860077BC26BDFEBBE09A0DB3071521F00FE044
:1001960005BF8ABE8BBEE0E1332700244424112428
:1001A600282D0027CC24332444275527BA01CA0119
:1001B600DA0111277894C8B7C2FFFDCFC8BF37FF51
:1001C60006C0C0911D0108892FE13F770CC007FDCD
:1001D60012C0119708F079F42A952AF42FE101FD4F
:1001E6000F2702FD0829A0911B01B0911C01C22F07
:1001F60000FFC22518A93A946AF4309016013A9481
:1002060066946E2CF794E79410F4C8E33C27661CBA
:100216006E246694415050403AF44091100150913A
:100226001101415050403F27615070403AF46091AF
:10023600120170911301615070403D27019732F40D
:10024600809114019091150101973A25B0901701FC
:10025600B32ACB2DCC0FC295BC22C0911801012E1A
:10026600C4FF08A0B0FE0024C0911901412EC4FFAE
:1002760048A0B1FE4424C0911A01112EC4FF18A053
:10028600B2FE1124C42D46944694C4194694C4194A
:100296000C0E1C0E0ABC18BC8ECF05910D932A9528
:0402A600E1F70895DF
:00000001FF
