:100000000C944A100C945C100C945C100C945C10D2
:100010000C945C100C945C100C945C100C94C91142
:100020000C945C100C945C100C945C100C945C10A0
:100030000C945C100C945C100C945C100C945C1090
:100040000C947F110C945C100C945C100C945C105C
:100050000C945C100C945C100C945C100C945C1070
:100060000C945C100C945C1002110D010D040B0338
:10007000032505010A110202030406010405020416
:10008000011108040203060105050102080104002C
:100090000A120205120302030904030A09050201F8
:1000A0000405010514080102040501040304020407
:1000B0000501020504010C01050A020303020A07F7
:1000C00009080002040D09050503010407060102E1
:1000D0000D060102020407050604040102020502DE
:1000E00009020402070403080304070704040103C8
:1000F000030401010F0309040202010409040202BE
:100100000D040003020201040502030101020304BD
:1001100007020106020305040102030103020302B0
:10012000020201040701020603020A020703060293
:10013000020107030202060305020302090102028B
:100140000702070201040502030601040201070673
:10015000020109020903050401020401020300036C
:100160000104030101010101010201010303010472
:100170000202010101010201010102020103020365
:100180000102070103020402050303020601010143
:100190000301010104020301050101020202010140
:1001A000010103020201050105010301010202012F
:1001B000010203010102030202020401020202021F
:1001C0000801020104010401030107020302030103
:1001D00009010701060204010701050101010403E9
:1001E000010105020A0301010401040100031033A7
:1001F000221111221132FF000209191208091109F6
:1002000019113C0919090909080003040D0905041D
:1002100009040D091F040E04040505040404160551
:100220001F0D05080E0908090C000401080403024B
:1002300005020705100208020202030202030B0373
:1002400010070304070505040A040504030203025A
:1002500002050507040507051405090A0207050537
:100260000702020209000301040202010301040261
:10027000090105010101020101020601090402024E
:100280000403020305030203010102010103030346
:10029000030303030B030506010402030401020127
:1002A0000203090104030101030103080101020320
:1002B000020402020106040103030109010602050A
:1002C00003030204010201050302070502070804F3
:1002D00001040100020202010405020304030401F7
:1002E00002040201040101010405040102040102E7
:1002F00002030203010104030202010204010102DC
:10030000030A0205010102080101020502010202BD
:1003100002060305010402040107020702020104A8
:1003200001020405020303020101040203050401A2
:10033000040901090405010201010204010301008D
:100340000302020104050203010102030605020182
:100350000101040104050401020202030203010376
:1003600002010401010501020602030A0206030755
:100370000201020703020205040502030203010849
:100380000207020201040102040502030101030243
:100390000404010506010209010904050302020320
:1003A0000103020016171A1D1E222427292B0C00F8
:1003B00016B716000CAD0B000800535C67FF005227
:1003C000585CFF002B2E33393D420A000429547B30
:1003D00051FF00040B17202B343F49220004060C68
:1003E00011161B20262A3034FF00030308090C0EC7
:1003F000121316191B1E20232500040205050708E9
:100400000A0A0C0D0F0F12121414161819191B1DBD
:100410000800529D529D979D529D529D979DDA9D39
:10042000DA9D1F9EDA9DDA9D1F9E629EB59E089FF3
:100430004B9F9E9FF19F42A042A097A042A042A046
:1004400097A0DCA0D0A13DA32EA4DCA0D0A13DA309
:100450002EA498A504A6C4A21FA5529D529D979DA7
:10046000529D529D979DDA9DDA9D1F9EDA9DDA9DE1
:100470001F9E70A6BFA616A75DA7ACA703A84AA893
:100480004AA89FA84AA84AA89FA870A6BFA616A7D0
:100490005DA7ACA703A84AA84AA89FA84AA84AA84B
:1004A0009FA8AEAC1AADDCA0D0A1CCAABDABE4A88D
:1004B000D8A9CCAABDABDCA0D0A13DA32EA4529D4F
:1004C000529D979D529D529D979DDA9DDA9D1F9E4C
:1004D000DA9DDA9D1F9E86AD3CAEF2AEA1AF51B063
:1004E00010B1C6B176B225B325B3D8B3D8B325B30E
:1004F00025B3D8B3D8B386AD3CAEF2AEA1AF86ADCE
:100500003CAEF2AEA1AF25B325B3D8B386B42BB5BC
:100510002BB5D5B5D5B57BB6C0B724B724B75EB873
:100520000000409C840302834984E780D20185DB7C
:10053000010184E7010185DB81A40184E7010185D4
:10054000DB010101010101010683E8869280D201ED
:1005500087D001018692010187D0010601010101C6
:100560000101010101010101FF840302834984E7C4
:1005700080D20185DB010184E7010185DB81A401D3
:1005800084E7010185DB010101010101010681F41C
:1005900084E781A40183E801010101010101060151
:1005A0000101010101010101010101FF8403028236
:1005B0007683B0809D018463010183B0010184636F
:1005C000813B0183B001018463010101010101014B
:1005D0000682ED84E7809D0185DB010184E701014E
:1005E00085DB010601010101010101010101010198
:1005F000FF840302827683B0809D018463010183BE
:10060000B001018463813B0183B001018463010176
:10061000010101010106817683B0813B0182ED0178
:1006200001010101010106010101010101010101B5
:10063000010101FF84030287D084E780D287D0853F
:10064000DB018BB684E7018BB685DB81A489D98475
:10065000E70189D985DB0189D9010189D901010621
:1006600089D9869280D284E787D00184E786920177
:1006700089D987D0010684E7010189D9010184E77E
:10068000010189D90101FF84030288C684E780D271
:1006900088C685DB0188C684E70188C685DB81A41E
:1006A00087D084E70187D085DB0187D001018349AA
:1006B0000101068349869280D2834987D00182ED69
:1006C000869201834987D001068349010186920100
:1006D000018349010186920101FF840302D349B4D9
:1006E000E7A06901C5DB0101D4E70101E5DBB0D278
:1006F00001F4E70101F5DB0101010101010106D16E
:10070000F4F4E7C0D201F3E801010101010101069F
:10071000010101010101010101010101FF84030245
:1007200087D084E7A06987D085DB018BB684E70199
:100730008BB685DBB0D289D984E70189D985DB0105
:1007400089D9010189D901010689D98692E0698494
:10075000E787D00184E786920189D987D001068492
:10076000E7010189D9010184E7010189D90101FF6C
:1007700084030288C684E7A06988C685DB0188C631
:1007800084E70188C685DBB0D287D084E70187D0B3
:1007900085DB0187D00101834901010683498692E7
:1007A000F069834987D00182ED869201834987D021
:1007B0000106834901018692010183490101869264
:1007C0000101FF840302D349B4E7A069D349C5DB23
:1007D00001D692D4E701D692E5DBB0D2D349F4E753
:1007E00001D349F5DB01D6920101D692010106D170
:1007F000F4F4E7C0D2D1F4F3E801D3E80101D3E87F
:10080000010106D3E80101D7D00101D7D00101D7FA
:10081000D00101FF840302827693B0809D8276949A
:100820006301827693B00182769463813B84E7937F
:10083000B00184E794630184E7010182ED010106C0
:1008400082EDA4E7809D82EDA5DB0182EDA4E701A6
:1008500082EDA5DB010685DB01813B85DB010182A1
:10086000ED0180BB85DB0101FF840302827693B03A
:10087000809D019463010193B001019463813B0168
:1008800093B0010194630101010101010106817628
:10089000A3B0813B01A2ED010101010101010601AB
:1008A00001809D010101010180BB010101FF840361
:1008B0000289D984E7806989D985DB0189D984E7F0
:1008C0000189D985DB80D289D984E70189D985DB83
:1008D0000189D9010189D901010689D986928069E6
:1008E00089D987D00189D986920189D987D0813B5E
:1008F0000684E7010184E7010189D9010189D90151
:10090000010288C684E7806988C685DB0188C684C1
:10091000E70188C685DB80D288C684E70187D08559
:10092000DB0187D0010187D001000687D086928045
:10093000D287D087D00188C686920188C687D080AA
:10094000FA06869201018692010186920101869241
:10095000010102869284E78069869285DB01869296
:1009600084E701869285DB80D2869284E70189D96B
:1009700085DB0189D9010189D901010689D984E77B
:1009800080FA89D983E80186920101869201809DCF
:1009900006869201018692010186920101869201EA
:1009A00001FF84030289D984E7806989D985DB0145
:1009B00089D984E70189D985DB80D289D984E70187
:1009C00089D985DB0189D9010189D901010689D934
:1009D0008692806989D987D00189D986920189D97F
:1009E00087D0813B0689D9010189D9010189D901C3
:1009F0000189D901010288C684E7806988C685DB40
:100A00000188C684E70188C685DB80D288C684E772
:100A10000187D085DB0187D0010187D001000687DF
:100A2000D0869280D287D087D00186928692018626
:100A30009287D080FA068692010186920101869201
:100A400001018692010102869284E780698692857F
:100A5000DB01869284E701869285DB80D2869284D0
:100A6000E701869285DB01869201018692010106EB
:100A7000869284E780FA869283E801869201018655
:100A80009201809D06869201018692010186920163
:100A90000186920101FF84030289D984E7806901FC
:100AA000010107010101010101028A6E0101010139
:100AB000010101010101010789D98349809D0101DB
:100AC000010101010101010184E7010101010101AD
:100AD000010101010588C68463805D0101010101F6
:100AE0000101010189D90101010101010101010196
:100AF000010288C68349808C0101010101010101C5
:100B00000101846301010101010101010101FF846F
:100B10000302876083B0809D876084630187608360
:100B2000B00187608463813B876083B00187608404
:100B30006301876001018760010106876084E70126
:100B4000876085DB01876084E701876085DB80EC57
:100B500006876001018760010187600101876001EC
:100B60000102869283B0018692846301869283B0EB
:100B70000186928463809D869283B00185DB8463C5
:100B80000185DB010185DB01000685DB84E7809DB3
:100B900085DB85DB0184E784E70184E785DB80BBB7
:100BA0000684E7010184E7010184E7010184E7018C
:100BB000010284E783B00184E784630184E783B0A2
:100BC0000184E78463809D84E783B00184E78463C4
:100BD0000184E7010184E701010684E783B080BB5B
:100BE00084E782ED0184E7010184E70180760684D1
:100BF000E7010184E7010184E7010184E70101FFC6
:100C0000840302876083B0809D876084630187606E
:100C100083B00187608463813B876083B001876014
:100C2000846301876001018760010106876084E7B2
:100C300001876085DB01876084E701876085DB8051
:100C4000EC0683B0010183B0010183B0010183B0E0
:100C5000010102869283B0018692846301869283A9
:100C6000B00186928463809D869283B00185DB8487
:100C7000630185DB010185DB01000685DB84E780FC
:100C80009D85DB85DB01876084E701876085DB80EC
:100C9000BB068760010187600101876001018760F1
:100CA000010102876083B0018760846301876083EC
:100CB000B00187608463809D876083B00187608412
:100CC0006301876001018760010106876083B0804E
:100CD000BB876082ED018760010187600180760635
:100CE0008760010187600101876001018760010160
:100CF000FF84030287D084E78069010101070101B5
:100D0000010101010288C601010101010101010186
:100D100001010789D98349809D0101010101010178
:100D200001010184E7010101010101010101010546
:100D3000018463805D01010101010101010189D983
:100D400001010101010101010101010287D0834973
:100D5000808C0101010101010101018760846301AF
:100D6000010101010101010101FF84030283E88403
:100D7000E780D2010101010101010101010101012D
:100D80000101010101010101010101010101010153
:100D90000101010101010101010101010101010143
:100DA00005010180BB0101010101010101010101F6
:100DB00001010101010101010101020184638118A6
:100DC0000101010101010101010101010101010113
:100DD0000101010101FF84030283B084E7806901FE
:100DE00001010101010101010101010101010101F3
:100DF00001010101010101010101010101010101E3
:100E0000010101010101010101010101050101804F
:100E10005D01010101010101010101010101010166
:100E200001010101010102018349808C01010101DD
:100E300001010101010101010101010101010101A2
:100E400001FF84030280EC84E780D280EC85DB0123
:100E500081D884E70181D885DB81A480EC84E70117
:100E600080EC85DB010101010101010680D286923F
:100E7000806980D287D00181A486920181A487D025
:100E8000010680D2010180D20101010101010101AD
:100E9000FF84030288C684E780D288C685DB018888
:100EA000C684E70188C685DB81A487D084E70187F3
:100EB000D085DB0187D0010189D901010689D98953
:100EC000D9806989D987D00189D989D90189D987F8
:100ED000D0010684E789D90184E789D90184E789AB
:100EE000D90184E789D901FF840302D7D0B3E8C0D0
:100EF0006901C3E80101D3E80101E3B0C0D201F305
:100F0000B00101F3B00101010101010106D1F4F4C6
:100F100063D0D201F4630101F3E80101F3E80106B3
:100F200001F3E80101F3E801010101010101FF847E
:100F30000302B0ECB4E780D2B0ECC5DB01B1D8D489
:100F4000E701B1D8E5DB81A4B0ECF4E701B0ECF542
:100F5000DB0101010101010106B0D2F6928069B006
:100F6000D2F7D001B1A4F69201B1A4F7D00106B036
:100F7000D20101B0D20101010101010101FF84038D
:100F800002C8C6B4E780D2C8C6C5DB01C8C6D4E76C
:100F900001C8C6E5DB81A4C7D0F4E701C7D0F5DB03
:100FA00001C7D00101C9D9010106C9D9F9D98069A0
:100FB000C9D9F7D001C9D9F9D901C9D9F7D00106E2
:100FC000C4E7F9D901C4E7F9D901C4E7F9D901C4E3
:100FD000E7F9D901FF840302D7D083E8C069019300
:100FE000E80101A3E80101B3B0C0D201C3B001011F
:100FF000D3B00101010101010106D1F4D463D0D2C3
:1010000001D4630101D3E80101D3E8010601D3E86B
:101010000101D3E801010101010101FF840302C2C2
:1010200076C3B0B09DB276B46301A276C3B001922C
:1010300076D463A13B84E7E3B00184E7F4630184E1
:10104000E7010182ED01010682EDA4E7909D82EDAA
:10105000A5DB0182EDA4E70182EDA5DB010685DBBE
:1010600001C13B85DB010182ED01D0BB85DB0101C4
:10107000FF840302B276D3B0B09D01B4630101C313
:10108000B00101D463A13B01E3B00101F4630101AC
:10109000010101010106D176C3B0913B01D2ED01FE
:1010A000010101010101060101C09D0101010101D0
:1010B000D0BB010101FF84030289D984E7806989DB
:1010C000D985DB0189D984E70189D985DB80D2897B
:1010D000D984E70188C685DB0188C6010188C6017D
:1010E000010687D08692806987D087D00187D08615
:1010F000920187D087D0813B0688C6010188C6014E
:101100000188C6010188C601010289D984E7806986
:1011100089D985DB0188C684E70188C685DB80D252
:1011200087D084E70187D085DB0187600101876074
:101130000100068692869280D2869287D00186929E
:10114000869201869287D080FA0686920101869265
:101150000101869201018692010102869284E78054
:1011600069869285DB01869284E701869285DB8021
:10117000D2869284E70189D985DB0189D901018969
:10118000D901010689D984E780FA89D983E80186E3
:10119000920101869201809D06869201018692014C
:1011A000018692010186920101FF84030289D9849C
:1011B000E7806989D985DB0189D984E70189D985E7
:1011C000DB80D289D984E70189D985DB0188C60112
:1011D0000188C601010688C68692806988C687D0C4
:1011E0000188C686920188C687D0813B0688C601E1
:1011F0000188C6010188C6010188C601010289D99A
:1012000084E7806989D985DB0189D984E70189D997
:1012100085DB80D289D984E70189D985DB018BB64A
:1012200001018BB60100068BB6869280D28BB68701
:10123000D0018BB68692018BB687D080FA0689D909
:10124000010189D9010189D9010189D901010289E5
:10125000D984E78069869285DB01869284E70186DE
:101260009285DB80D2869284E701869285DB0186B7
:101270009201018692010106869284E780FA8692A5
:1012800083E80186920101869201809D0686920183
:1012900001869201018692010186920101FF840379
:1012A00002876083B0809D8760846301876083B01C
:1012B0000187608463813B876083B00187608463BA
:1012C0000187600101876001010687D084E70187FB
:1012D000D082ED0187D084E70187D082ED80EC06D3
:1012E00087D0010187D0010187D0010187D001019A
:1012F00002876083B0018760846301876083B001E7
:1013000087608463809D876083B001876084630108
:101310008760010185DB01000685DB84E7809D8510
:10132000DB82ED0184E784E70184E782ED80BB0680
:1013300084E7010184E7010184E7010184E70101F9
:101340000284E783B00184E784630184E783B0010A
:1013500084E78463809D84E783B00184E78463012C
:1013600084E7010184E701010684E783B080BB8440
:10137000E782ED0184E7010184E70180760684E7D6
:10138000010184E7010184E7010184E70101FF8491
:101390000302876083B0809D8760846301876083D8
:1013A000B00187608463813B876083B0018760847C
:1013B000630187600101876001010687D084E7012E
:1013C00087D085DB0187D084E70187D085DB80EC7F
:1013D0000687D0010187D0010187D0010187D001A4
:1013E0000102876083B0018760846301876083B0F6
:1013F0000187608463809D876083B0018760846318
:101400000187600101876001000685DB84E7809D1C
:1014100085DB85DB01876084E701876085DB80BB36
:101420000687600101876001018760010187600113
:101430000102876083B0018760846301876083B0A5
:101440000187608463809D876083B00187608463C7
:1014500001876001018760010106876083B080BB5E
:10146000876082ED018760010187600180760687D1
:10147000600101876001018760010187600101FF50
:10148000840302A3E8B4E790D20101010101010144
:10149000010101010101010101010101010101013C
:1014A000010101010101010101010101010101012C
:1014B00001010101010105010190BB0101010101CF
:1014C000010101010101010101010101010101010C
:1014D0000201B4639118010101010101010101013F
:1014E0000101010101010101010101FF840302A3C6
:1014F000B0B4E780690101010101010101010101AD
:1015000001010101010101010101010101010101CB
:1015100001010101010101010101010101010101BB
:101520000101050101805D010101010101010101CC
:101530000101010101010101010101010201B349A0
:10154000808C010101010101010101010101010181
:1015500001010101010101FF84030290D281F480A5
:101560006901010101010191A40180D20101010180
:1015700001010101010101010690D282318069015E
:1015800001010101010101813B060101010101018C
:101590000101010101010290D282768069010101FD
:1015A00001010191A40180D20101010101010101A8
:1015B000010101000691A40180D201010101010194
:1015C00091F40180FA06010101010101010101010B
:1015D00001010290D201806901010101010191A480
:1015E0000180D20101010101010101010101010696
:1015F00091F40180FA010101010101913B01809DFB
:1016000006010101010101010101010101FF840342
:101610000280D28231806901010101010181A401AE
:1016200080D20101010101010101010101010680D6
:10163000D281F48069010101010101827601813BBF
:10164000060101010101010101010101010280D234
:1016500001806901010101010181A40180D2010120
:10166000010101010101010101000681A40180D2F3
:1016700001010101010181F40180FA06010101016A
:1016800001010101010101010281A401806901013F
:101690000101010181A40180D201010101010101C7
:1016A00001010101010681F40180FA01010101013A
:1016B00001813B01809D0601010101010101010140
:1016C000010101FF840302813B81D8809D0101015A
:1016D000010101827601813B01010101010101014A
:1016E000010101010601010101010101010181D88E
:1016F0000180EC060101010101010101010101016B
:1017000002010101010101010101813B01809D01F3
:101710000101010101010101010100068276018040
:101720009D01010101010181760180BB06010101DA
:101730000101010101010101010201010101010198
:10174000010101827601809D010101010101010178
:10175000010101010681760180BB01010101010146
:1017600081D8018076060101010101010101010119
:101770000101FF840302813B8276809D010101010A
:101780000101827601813B01010101010101010199
:101790000101010601010101010101010181D801DD
:1017A00080EC0601010101010101010101010102B9
:1017B000010101010101010101813B01809D010144
:1017C000010101010101813B0101010682760180D5
:1017D0009D01010101010181760180BB060101012A
:1017E00001010101010101010102010101010101E8
:1017F000010101813B01809D010101010101010104
:10180000010101010681760180BB01010101010195
:1018100080EC018076060101010101010101010155
:101820000101FF84030290D284E780690101010174
:10183000010191A40180D201010101010101010115
:101840000101010690D28349806901010101010172
:101850000101813B060181A4010101010101010196
:1018600001010290D284E780690101010101019127
:10187000A40180D201827601010101010101000170
:10188000000691A4869280D201010101010191F428
:10189000834980FA060101010101010184E7010188
:1018A00001010290D289D9806901010101010191F0
:1018B000A484E780D20101010101010101010101BC
:1018C000010691F483E880FA010101010101913BD5
:1018D00088C6809D0601010101010101010101018C
:1018E00001FF84030280D288C680690101010101E1
:1018F0000181A40180D20101010101010101010165
:1019000001010680D2018069010101010101827695
:1019100001813B06010101010101010101010101F8
:101920000280D29463806901010101010181A40157
:1019300080D20101010101010101010001000681C4
:10194000A40180D201010101010181F40180FA06A4
:101950000101010101010101010101010281A40153
:10196000806901010100010181A40180D20101010E
:101970000101010101010101010681F40180FA0167
:101980000101010101813B01809D0601010101016D
:1019900001010101010101FF840302813B01809DDE
:1019A000010101010101827601813B010101010177
:1019B0000101010101010106010101010101010112
:1019C0000181D8846380EC0601010101010101015C
:1019D0000101010102010101010101010101813B3C
:1019E00084E7809D01010101010101010101010064
:1019F00006827601809D010101010101817601804D
:101A0000BB06010101010101010101010101020106
:101A10000101010101010101827601809D010101A5
:101A20000101010101010101010681760180BB0173
:101A3000010101010181D801807606010101010146
:101A400001010101010101FF840302813B82ED805C
:101A50009D010101010101827601813B010101012A
:101A60000101010101010101060101010101010161
:101A7000010181D80180EC06010101010101010190
:101A80000101010102010101010101010101813B8B
:101A900001809D0101010101010101010101000617
:101AA000827601809D01010101010181760180BBE7
:101AB0000601010101010101010101010102010110
:101AC00001010101010101813B01809D0101010131
:101AD00001010101010101010681760180BB0101C3
:101AE0000101010180EC0180760601010101010183
:101AF000010101010101FF84030290D2008069010C
:101B000001010101010A91A40180D2010101010139
:101B10000101010101010190D2018069010101016E
:101B200001010101813B06010101010101010101E6
:101B30000101010290D201806901010101010191BD
:101B4000A40180D201010101010101010101010093
:101B50000691A40180D201010101010191F40180EB
:101B6000FA060101010101010101010101010290D7
:101B7000D201806901010101010191A40180D2011A
:101B800001010101010101010101010691F401803E
:101B9000FA010101010101913B01809D0601010152
:101BA000010101010101010101FF840302813B01E7
:101BB000809D010101010101827601813B0101014A
:101BC0000101010101010101010601010101010100
:101BD00001010181D80180EC06010101010101012F
:101BE0000101010101020101010101010101018164
:101BF0003B01809D01010101010101010101010180
:101C000006827601809D010101010101817601803A
:101C1000BB060101010101010101010101010201F4
:101C20000101010101010101827601809D01010193
:101C30000101010101010101010681760180BB0161
:101C4000010101010181D801807606010101010134
:101C500001010101010101FF8403813B01809D011C
:101C60000101010101827601813B010101010101B4
:101C700001010101010101010101010101010181D4
:101C8000D80180EC01010101010101010101010103
:101C9000010101010101010101813B01809D01015F
:101CA00001010101010101010101827601809D0113
:101CB000010101010181760180BB010101010101E6
:101CC0000101010101010101010101010101018283
:101CD0007601809D01010101010101010101010164
:101CE00081760180BB01010101010181D80180766B
:101CF000010101010101010101010101FF8403D181
:101D0000A4008069010101010101E1A40180D20167
:101D10000101010101010101010101F0D20180690C
:101D20000101010101010101813B010101010101E9
:101D3000010101010101F0D20180690101010101EC
:101D400001F1A40180D201010101010101010101A0
:101D50000101F1A40180D2010101010101F1F401AD
:101D600080FA010101010101010101010101F0D22B
:101D7000018069010101010101F1A40180D2010189
:101D800001010101010101010101F1F40180FA01E8
:101D90000101010101F13B01809D010101010101EE
:101DA000010101010101FF8403D13B01809D01017B
:101DB00001010101E27601813B0101010101010103
:101DC0000101010101010101010101010101F1D83C
:101DD0000180EC0101010101010101010101010189
:101DE0000101010101010101F13B01809D0101019E
:101DF0000101010101813B010101F27601809D0198
:101E00000101010101F1760180BB01010101010124
:101E1000010101010101010101010101010101F2C1
:101E20007601809D01010101010101010101010112
:101E3000F1760180BB010101010101F1D801807639
:101E4000010101010101010101010101FF8403D12F
:101E5000A400F069010101010101E1A401F0D20136
:101E60000101010101010101010101F0D201F0694B
:101E70000101010101010101F13B01010101010128
:101E8000F1A40101010101F0D201F0690101010198
:101E90000101F1A401F0D2010101010101010101DF
:101EA000010101F1A401F069010101010101F1F455
:101EB00001F07D010101010101010101010101F0B8
:101EC000D201F069010101010101F1A401F0D20187
:101ED0000101010101010101010101F1F401000110
:101EE0000101010101F13B010101010101010101B8
:101EF0000101010101FF8403D13B00000101010147
:101F00000101E2760101010101010101010101016B
:101F10000101010101010101010101F1D8010101EA
:101F200001010101010101010101010101010101A1
:101F300001010101F13B0101010101010101010167
:101F400001010101F2760101010101010101F176B6
:101F50000101010101010101010101010101010171
:101F600001010101010101F27601010101010101FB
:101F700001010101010101F17601010101010101EC
:101F800001F1D8010101010101010101010101017A
:101F900001FF8403D1A40000010101010101E1A4BA
:101FA0000101010101010101010101010101F0D261
:101FB0000101010101010101010101010101010111
:101FC00001010101010101F0D20101010101010141
:101FD00001F1A4010101010101010101010101015E
:101FE00000F1A40101010101010101F1F40101016C
:101FF0000101010101010101010101F0D201010111
:102000000101010101F1A40101010101010101012D
:102010000101010101F1F40101010101010101F1DD
:102020003B0101010101010101010101010101FF68
:102030006C0EF1A401010101010101010101010185
:102040000101010101010101010101010101010180
:102050000101010101010101010101010101010170
:10206000010101FFFA03EA03DD03D303CC03C40338
:10207000BF03BA03B803B403B003A4034003D402FC
:1020800066022A020A02F801ED015F010301C300A2
:102090009000680011241FBECFEFD8E0DEBFCDBF97
:1020A00021E0A0E0B1E001C01D92AB32B207E1F740
:1020B0000E94F0110C94F5120C9400003FB7F894B4
:1020C0008091050190910601A0910701B09108014E
:1020D00026B5A89B05C02F3F19F00196A11DB11D83
:1020E0003FBFBA2FA92F982F8827820F911DA11DBE
:1020F000B11DBC01CD0142E0660F771F881F991FFB
:102100004A95D1F708952091090130910A01F9010A
:1021100044913196849190E0982F8827840F911DE7
:102120003196009759F484913196249130E0322F02
:102130002227280F311D2E523849E9CFF0930A018A
:10214000E09309018E529849FC0124913196E49163
:10215000F0E0FE2FEE27E20FF11DF0931801E0935F
:102160001701029690932A0180932901089587E22E
:102170008093B30080910D018BB940911C01509167
:102180001D0180910E0190910F01480F591F50932E
:102190000F0140930E0120911E0130911F0180918B
:1021A000100190911101280F391F309311012093D4
:1021B0001001609120017091210180911201909194
:1021C0001301860F971F9093130180931201452FDF
:1021D00055276091190170E04617570720F040E835
:1021E00040930B0102C010920B01232F3327409123
:1021F0001A0150E02417350720F020E820930C0145
:1022000002C010920C01892F992720911B0130E008
:102210008217930720F080E880930D0102C010928E
:102220000D0188E191E190932301809322010895AB
:102230008BE18093B30080910C018BB980E791E131
:1022400090932301809322010895809114018823A3
:10225000A1F08091160181508093160180911601A2
:1022600081110BC0809115018150809315018091DF
:102270001501811102C0109214010895CF938AE2D2
:102280008093B300809126018BB98091250188232A
:1022900021F081508093250119C08091260180583A
:1022A00080932601E0912701F09128018491809389
:1022B00025013196F0932801E0932701811106C092
:1022C00087EB90E19093230180932201C091240138
:1022D000C0FD0E942511CF5FC0932401CF910895C6
:1022E00082E18093B30080910B018BB90E9425118C
:1022F00087EB90E1909323018093220108951F9230
:102300000F920FB60F9211242F933F938F939F93A9
:10231000AF93BF938091010190910201A0910301BD
:10232000B09104013091000123E0230F2D3720F4F8
:102330000196A11DB11D05C026E8230F0296A11D1F
:10234000B11D209300018093010190930201A0939D
:102350000301B09304018091050190910601A091C1
:102360000701B09108010196A11DB11D80930501DF
:1023700090930601A0930701B0930801BF91AF911C
:102380009F918F913F912F910F900FBE0F901F90B3
:1023900018951F920F920FB60F9211242F933F930F
:1023A0004F935F936F937F938F939F93AF93BF935D
:1023B000EF93FF93E0912201F09123010995FF91A2
:1023C000EF91BF91AF919F918F917F916F915F91AD
:1023D0004F913F912F910F900FBE0F901F90189526
:1023E000789484B5826084BD84B5816084BD85B5F0
:1023F000826085BD85B5816085BD80916E008160FC
:1024000080936E00109281008091810082608093A1
:1024100081008091810081608093810080918000A3
:102420008160809380008091B10084608093B100CE
:102430008091B00081608093B00080917A008460C8
:1024400080937A0080917A00826080937A008091F4
:102450007A00816080937A0080917A00806880930E
:102460007A001092C100F8948EE091E049E151E0C9
:10247000EBE0F1E0CCE1D1E023E02E0FDC011D9296
:102480001D92CD01199219921192DA011D92AD019E
:102490002E13F4CF10921401109216011092150110
:1024A00082E194E090930A01809309010E948310D5
:1024B000579A1092B0001092B1001092B200809121
:1024C000B00082608093B0008091B1008260809300
:1024D000B100809170008260809370000E94B710FC
:1024E000789411E05EE3A52E51E1B52E20912901EB
:1024F00030912A01F90184918F3F19F40E948310D1
:10250000F5CF9EEF980F9E37E0F490E0880F991F6B
:10251000805A9F4DFC01859194919093280180935E
:102520002701109226011092250110922401B092E9
:102530002301A09222012F5F3F4F30932A01209365
:1025400029016091290170912A0149E151E0ACE132
:10255000B1E0FB0184913196811106C011961C9265
:102560001E92EA01188213C087FF11C0249190E0E7
:10257000982F8827820F911D9C013F7011963C93E4
:102580002E93892F807FFA018083FB013296129669
:102590004F5F5F4F21E0A232B20711F0BF01D9CFE8
:1025A000F0932A01E093290190911701809118017D
:1025B00090931601809315011093140180911401DA
:1025C000882309F493CF0E945E106B017C010E9466
:1025D0005E10DC01CB018C199D09AE09BF09883E54
:0E25E0009340A105B10550F7F2CFF894FFCF5C
:107E0000112484B714BE81FFF0D085E080938100F7
:107E100082E08093C00088E18093C10086E0809377
:107E2000C20080E18093C4008EE0C9D0259A86E02C
:107E300020E33CEF91E0309385002093840096BBD3
:107E4000B09BFECF1D9AA8958150A9F7CC24DD24C4
:107E500088248394B5E0AB2EA1E19A2EF3E0BF2EE7
:107E6000A2D0813461F49FD0082FAFD0023811F036
:107E7000013811F484E001C083E08DD089C08234E0
:107E800011F484E103C0853419F485E0A6D080C0E4
:107E9000853579F488D0E82EFF2485D0082F10E0AE
:107EA000102F00270E291F29000F111F8ED06801E7
:107EB0006FC0863521F484E090D080E0DECF843638
:107EC00009F040C070D06FD0082F6DD080E0C81688
:107ED00080E7D80618F4F601B7BEE895C0E0D1E017
:107EE00062D089930C17E1F7F0E0CF16F0E7DF06D8
:107EF00018F0F601B7BEE89568D007B600FCFDCFD4
:107F0000A601A0E0B1E02C9130E011968C91119780
:107F100090E0982F8827822B932B1296FA010C0160
:107F200087BEE89511244E5F5F4FF1E0A038BF0790
:107F300051F7F601A7BEE89507B600FCFDCF97BE46
:107F4000E89526C08437B1F42ED02DD0F82E2BD052
:107F50003CD0F601EF2C8F010F5F1F4F84911BD097
:107F6000EA94F801C1F70894C11CD11CFA94CF0C13
:107F7000D11C0EC0853739F428D08EE10CD085E9AC
:107F80000AD08FE07ACF813511F488E018D01DD067
:107F900080E101D065CF982F8091C00085FFFCCF94
:107FA0009093C60008958091C00087FFFCCF809118
:107FB000C00084FD01C0A8958091C6000895E0E648
:107FC000F0E098E1908380830895EDDF803219F02E
:107FD00088E0F5DFFFCF84E1DECF1F93182FE3DFCA
:107FE0001150E9F7F2DF1F91089580E0E8DFEE27F6
:047FF000FF270994CA
:027FFE00040479
:0400000300007E007B
:00000001FF
