:100000000C9459040C946B040C946B040C946B04C6
:100010000C946B040C946B040C946B040C942105ED
:100020000C946B040C946B040C946B040C946B0494
:100030000C946B040C946B040C946B040C946B0484
:100040000C94D7040C946B040C946B040C946B0408
:100050000C946B040C946B040C946B040C946B0464
:100060000C946B040C946B0404080F087E9CC49CD5
:10007000C49CC49C0A9D0A9D509D509D969D969D32
:10008000DC9DDC9D229E6B9EB39EFC9E449F8D9FBB
:10009000D59F1EA06AA089A16AA089A1A8A289A152
:1000A000C7A300004E9C120F0F0F0F004800000066
:1000B000000000004E000048000000005600004E06
:1000C000000000004E000056000000005C00004EE2
:1000D000000000005600005C0000000060000056B8
:1000E000000000005C00006000000080120F0F0F95
:1000F0000F004800005C000000004E0000480000B7
:1001000000005600004E000000004E0000560000A7
:1001100000005C00004E000000005600005C000083
:10012000000060000056000000005C00006000005D
:100130000080120F0F0F0F004818005C001800001D
:100140004E180048001800005618004E0018000015
:100150004E180056001800005C18004E00180000F1
:100160005618005C001800006018005600180000C7
:100170005C18006000180080120F0F0F0F0048106D
:100180000058001000004E100048001000005610EB
:10019000004E001000004E100056001000005810D5
:1001A000004E0010000056100058001000005C10B7
:1001B0000056001000005810005C00100080120F64
:1001C0000F0F0F00480A0058000A00004E0A0048AE
:1001D000000A0000560A004E000A00004E0A0056AF
:1001E000000A0000580A004E000A0000560A005893
:1001F000000A0000600A0056000A0000580A006069
:10020000000A0080120F0F0F0F00460E0056000E5E
:1002100000004C0E0046000E0000520E004C000E76
:1002200000004C0E0052000E0000560E004C000E56
:100230000000520E0056000E0000580E0052000E34
:100240000000560E0058000E0080120F0F0F0F0016
:10025000481800855C001800004E1800480018007F
:1002600085005618004E001800004E180056001861
:1002700000005C18004E001800005618005C0018C2
:1002800000006018008556001800005C180060002F
:10029000180080120F0F0F0F00481800825C001822
:1002A00000004E18004800180082005618004E004A
:1002B0001800004E180056001800005C18004E0090
:1002C0001800005618005C00180000601800560066
:1002D0001800005C18006000180080120F0F0F0F4C
:1002E000004810008558001000004E100048001013
:1002F0000085005610004E001000004E1000560001
:100300001000005810004E00100000561000580059
:100310001000005C10008556001000005810005CB2
:1003200000100080120F0F0F0F00481000825800BD
:100330001000004E10004800100082005610004EC1
:10034000001000004E100056001000005810004E23
:100350000010000056100058001000005C100056FD
:10036000001000005810005C00100080120F0F0FEA
:100370000F00480A008558000A00004E0A00480095
:100380000A008500560A004E000A00004E0A005678
:10039000000A0000580A004E000A0000560A0058E1
:1003A000000A0000600A008556000A0000580A0092
:1003B00060000A0080120F0F0F0F00480A008258D9
:1003C000000A00004E0A0048000A008200560A0097
:1003D0004E000A00004E0A0056000A0000580A00AB
:1003E0004E000A0000560A0058000A0000600A0089
:1003F00056000A0000580A0060000A0080120F0F21
:100400000F0F00460E008556000E00004C0E0046F1
:10041000000E008500520E004C000E00004C0E0035
:1004200052000E0000560E004C000E0000520E004E
:1004300056000E0000580E008552000E0000560EA9
:100440000058000E0080120F0F0F0F00460E0082A2
:1004500056000E00004C0E0046000E008200520EA8
:10046000004C000E00004C0E0052000E0000560E14
:1004700000844C000E0000520E0056000E00840056
:10048000580E0052000E0000560E008358000E0059
:100490008380127F3F0F3F444E18568500000000B6
:1004A0000000000000003000000000008200001882
:1004B0000000002C00000030000000180085000043
:1004C00000000000000000003000850000000082F5
:1004D0000000180000002C0000003000444E1856A8
:1004E00085000000000000000085000030000000D2
:1004F000000082000018008500002C000000300081
:10050000444E1856850000000000000000444C30A6
:1005100052000018008200001800444E2C560000C3
:100520003000000018008500000000000000008579
:100530000000300000000000820000180000002CC5
:1005400000000030000000180085000018000000C6
:10055000000000003000850000000082000018004C
:100560008500002C0000003000444E185685000025
:100570000000000000008500003000000000008244
:1005800000001800444E2C560000300000001400FB
:100590008500000000444C2C52850000140000002F
:1005A00000008200002C0000001400000000008504
:1005B00080127F3F0F3F484E10568500000000001C
:1005C0000000000000280000000000820000100071
:1005D0000000260000002800000010008500000038
:1005E00000000000000000280085000000008200DC
:1005F0000010000000260000002800484E1056851C
:10060000000000000000000085000028000000003D
:10061000008200001000850000260000002800482D
:100620004E1456850000000000002C00444C14526B
:10063000000000008200002C00484E145600002CE0
:100640000000001000850000000000000000850090
:1006500000280000000000820000100000002600BA
:1006600000002800000010008500000000000000CD
:1006700000000028008500000000820000100085B6
:100680000000260000002800484E1056850000009B
:10069000000000000085000028000000000082002B
:1006A000001000484E28560000260000000E00856D
:1006B00000002600464C225885000026000000005D
:1006C000008200000E00000022000000260085804D
:1006D000127F3F0F3F40480A4E8500000000000097
:1006E000000000002200000000008200000A00005C
:1006F000001E000000220000000A0085000000002B
:1007000000000000000022008500000000820000C0
:100710000A0000001E000000220040480A4E85002A
:100720000000000000000085000022000000000022
:100730008200000A008500001E00000022004048E0
:100740000A4E85000000000000220040480A4E00CA
:10075000000A008200002200444C1E5200002200C9
:1007600000000E0085000000000000000085000071
:100770002600000000008200000E000000220000A1
:1007800000260000000E00850000000000000000B0
:100790000000260085000000008200000E00850099
:1007A00000220000002600444C0E5285000000008C
:1007B000000000008500002600000000008200000C
:1007C0000E00444C265600000E0000000E0085006E
:1007D000000000444C26588500000E000000000078
:1007E000820000260000000E000000260085801216
:1007F0000F0F0F3F004818565C001800004E1800FD
:1008000048001800005618004E001800004E18004E
:1008100056001800005C18004E0018000056180022
:100820005C0018000060180056001800005C1800FA
:1008300060001800800000F700060115012601374E
:10084000014A015D0172018801A001B801D301EEE6
:10085000010C022B024C026F029402BB02E5021152
:100860000340037103A603DD03180456049804DE55
:100870000428057705CA0522068006E3064C07BB57
:10088000073008AD083109BD09510AEF0A950B453B
:100890000C000DC60D980E760F61105B1163127B74
:1008A00013A314DE152A178B18011A8D1B301D0097
:1008B000000011241FBECFEFD8E0DEBFCDBF21E086
:1008C000A0E0B1E001C01D92A633B207E1F70E949B
:1008D00025060C942E070C9400003FB7F8948091E5
:1008E000050190910601A0910701B091080126B57C
:1008F000A89B05C02F3F19F00196A11DB11D3FBF58
:10090000BA2FA92F982F8827820F911DA11DB11DE5
:10091000BC01CD0142E0660F771F881F991F4A95E1
:10092000D1F708952091090130910A01F90144910C
:100930003196849190E0982F8827840F911D3196ED
:10094000009759F484913196249130E0322F222778
:10095000280F311D285D3B49E9CFF0930A01E09350
:100960000901885D9B49FC012491F0E42F9F9001CF
:1009700011243093350120933401FC013196E49128
:10098000E0931001FC013296E491E0931101FC0127
:100990003396E491E0931201FC013496E491E093E4
:1009A00013010596909331018093300108951F92B1
:1009B0000F920FB60F9211242F933F938F939F9313
:1009C000AF93BF938091010190910201A091030127
:1009D000B09104013091000123E0230F2D3720F462
:1009E0000196A11DB11D05C026E8230F0296A11D89
:1009F000B11D209300018093010190930201A09307
:100A00000301B09304018091050190910601A0912A
:100A10000701B09108010196A11DB11D8093050148
:100A200090930601A0930701B0930801BF91AF9185
:100A30009F918F913F912F910F900FBE0F901F901C
:100A400018951F920F920FB60F9211242F933F9378
:100A50004F938F939F9380910F01882389F05F9A22
:100A600080910F0190E08230910538F0880F991F36
:100A7000880F991F05970197F1F75F9810920F0162
:100A80008091320190913301892B49F0809132019C
:100A9000909133010197909333018093320120911B
:100AA0001C0130911D012034310508F4A2C01092C0
:100AB0000F0120911401309115018091280190912E
:100AC0002901820F931F90931501809314018217BF
:100AD000930720F48091200180930F01209116014B
:100AE0003091170180912A0190912B01820F931F61
:100AF00090931701809316018217930738F4909111
:100B00000F0180912101892B80930F012091180101
:100B10003091190180912C0190912D01820F931F2A
:100B200090931901809318018217930738F49091DC
:100B30000F0180912201892B80930F0120911A01CE
:100B400030911B0180912E0190912F01820F931FF4
:100B500090931B0180931A018217930738F49091A8
:100B60000F0180912301892B80930F0180910D014A
:100B700090910E0101968034910528F490930E0116
:100B800080930D0158C010920E0110920D018091BA
:100B90000C0190911001982339F490912001992330
:100BA00019F091509093200190911101982339F4FC
:100BB00090912101992319F09150909321019091E6
:100BC0001201982339F490912201992319F0915040
:100BD0009093220190911301982339F4909123016D
:100BE000992319F09150909323018F5F80930C010A
:100BF00022C080910B018F5F80930B018823D9F075
:100C000090911F0180911E01482F492745FF03C085
:100C10004AE040930F01955F982790931F01845FEE
:100C2000892780931E012F5F3F4F30931D01209332
:100C30001C0110920B019F918F914F913F912F9129
:100C40000F900FBE0F901F901895789484B5826016
:100C500084BD84B5816084BD85B5826085BD85B560
:100C6000816085BD80916E00816080936E001092DE
:100C70008100809181008260809381008091810059
:100C800081608093810080918000816080938000EA
:100C90008091B10084608093B1008091B000816048
:100CA0008093B00080917A00846080937A00809174
:100CB0007A00826080937A0080917A0081608093CC
:100CC0007A0080917A00806880937A001092C10047
:100CD000F89444E151E080E191E0E8E6F0E004E2DC
:100CE00011E0A0E2B1E028E231E064E06A0FEA013D
:100CF00019921992AE01E901199219929E011D9261
:100D0000EC011992CE017491E80179938E0131962C
:100D10006A13EDCF10920F0110920E0110920D0187
:100D200010920C0180E490E090931D0180931C01CF
:100D300010920B0110923301109232018CE690E078
:100D400090930A01809309010E949204579A10928D
:100D5000B0001092B1001092B2008091B000826099
:100D60008093B0008091B10082608093B100809147
:100D7000700082608093700086EE8093B300789458
:100D80008091340190913501909333018093320129
:100D90002091300130913101A8E2B1E080E090E093
:100DA000F901E80FF91FE491EE23C1F0F0E0EE7FC6
:100DB000FF27EB5CF74F44913196E491F0E0FE2F72
:100DC000EE27E40FF11D1196FC93EE93FC01EC5D10
:100DD000FE4F4081FC01E05EFE4F4083019612967B
:100DE00084309105E9F6F9013496F0933101E093EE
:100DF0003001E491E13878F0EE0FE0931F01E093C9
:100E00001E0110921D0110921C012B5F3F4F309369
:100E1000310120933001E0913001F0913101E491F2
:100E2000E03881F40E9492040DC00E946D04DC0140
:100E3000CB018C199D09AE09BF09883E9340A105DD
:100E4000B10598F38091320190913301892B09F417
:100E500097CF0E946D046B017C01E7CFF894FFCF20
:107E0000112484B714BE81FFF0D085E080938100F7
:107E100082E08093C00088E18093C10086E0809377
:107E2000C20080E18093C4008EE0C9D0259A86E02C
:107E300020E33CEF91E0309385002093840096BBD3
:107E4000B09BFECF1D9AA8958150A9F7CC24DD24C4
:107E500088248394B5E0AB2EA1E19A2EF3E0BF2EE7
:107E6000A2D0813461F49FD0082FAFD0023811F036
:107E7000013811F484E001C083E08DD089C08234E0
:107E800011F484E103C0853419F485E0A6D080C0E4
:107E9000853579F488D0E82EFF2485D0082F10E0AE
:107EA000102F00270E291F29000F111F8ED06801E7
:107EB0006FC0863521F484E090D080E0DECF843638
:107EC00009F040C070D06FD0082F6DD080E0C81688
:107ED00080E7D80618F4F601B7BEE895C0E0D1E017
:107EE00062D089930C17E1F7F0E0CF16F0E7DF06D8
:107EF00018F0F601B7BEE89568D007B600FCFDCFD4
:107F0000A601A0E0B1E02C9130E011968C91119780
:107F100090E0982F8827822B932B1296FA010C0160
:107F200087BEE89511244E5F5F4FF1E0A038BF0790
:107F300051F7F601A7BEE89507B600FCFDCF97BE46
:107F4000E89526C08437B1F42ED02DD0F82E2BD052
:107F50003CD0F601EF2C8F010F5F1F4F84911BD097
:107F6000EA94F801C1F70894C11CD11CFA94CF0C13
:107F7000D11C0EC0853739F428D08EE10CD085E9AC
:107F80000AD08FE07ACF813511F488E018D01DD067
:107F900080E101D065CF982F8091C00085FFFCCF94
:107FA0009093C60008958091C00087FFFCCF809118
:107FB000C00084FD01C0A8958091C6000895E0E648
:107FC000F0E098E1908380830895EDDF803219F02E
:107FD00088E0F5DFFFCF84E1DECF1F93182FE3DFCA
:107FE0001150E9F7F2DF1F91089580E0E8DFEE27F6
:047FF000FF270994CA
:027FFE00040479
:0400000300007E007B
:00000001FF
