:100000000C949C0A0C94AE0A0C94AE0A0C94AE0AA2
:100010000C94AE0A0C94AE0A0C94AE0A0C940A0B23
:100020000C94AE0A0C94AE0A0C94AE0A0C94AE0A70
:100030000C94AE0A0C94AE0A0C94AE0A0C94AE0A60
:100040000C94460C0C94AE0A0C94AE0A0C94AE0AB6
:100050000C94AE0A0C94AE0A0C94AE0A0C94AE0A40
:100060000C94AE0A0C94AE0AD808D80823112311B8
:100070003513110F010DEE0AD808D808CB06B504C8
:10008000CB06CB06D808D808231123113513110F3E
:10009000010DEE0AD808D808CB06B504CB06CB066E
:1000A000D808AB02A80000006303000000000000B5
:1000B0000000000000000000000000000000000040
:1000C0000000000000000000000000000000000030
:1000D0000000000000000000000000000000000020
:1000E0000000000000000000000000000000000010
:1000F0000000000000000000000000000000000000
:1001000000000000000000000000000000000000EF
:1001100000000000000000000000000000000000DF
:1001200000000000000000000000000000000000CF
:1001300000000000000000000000000000000000BF
:1001400000000000000000000000000000000000AF
:10015000000000000000000000000000000000009F
:10016000000000000000000000000000000000008F
:10017000000000000000000000000000000000007F
:10018000000000000000000000000000000000006F
:10019000000000000000000000000000000000005F
:1001A000000000000000000000000000000000004F
:1001B000000000000000000000000000000000003F
:1001C000000000000000000000000000000000002F
:1001D000000000000000000000000000000000001F
:1001E000000000000000000000000000000000000F
:1001F00000000000000000000000000000000000FF
:1002000000000000000000000000000000000000EE
:1002100000000000000000000000000000000000DE
:1002200000000000000000000000000000000000CE
:1002300000000000000000000000000000000000BE
:1002400000000000000000000000000000000000AE
:10025000000000000000000000000000000000009E
:10026000000000000000000000000000000000008E
:10027000000000000000000000000000000000007E
:10028000000000000000000000000000000000006E
:10029000000000000000000000000000000000005E
:1002A00000000000000000000000FF6303F0C248EF
:1002B000000000000000C2480000000000000048EC
:1002C0000000000000000048000000000000F2C232
:1002D00048000000000000C24800000000000000CC
:1002E000480000000000000048000000000000F08E
:1002F000914000000000000091400000000000005C
:10030000913D000000000000913D00000000000051
:10031000F29136000000000000913600000000005D
:100320000000360000000000000036000000000061
:1003300000F40040000000000000F09A40000000BF
:10034000000000004000000000000000400000002D
:10035000000000F7C23D000000000000C23D0000A8
:1003600000000000C23D000000000000C23D00008F
:1003700000000000C23D000000000000C23D00007F
:1003800000000000003D000000000000003D0000F3
:1003900000000000C236000000000000C23600006D
:1003A00000000000003600000000000000360000E1
:1003B000000000009140000000000000914000009B
:1003C000000000009140000000000000914000008B
:1003D000000000009136000000000000913600008F
:1003E00000000000003600000000000000360000A1
:1003F00000000000003D0000000000009A3D0000E9
:1004000000000000003D000000000000003D000072
:1004100000000000C23D000000000000C23D0000DE
:1004200000000000C23D000000000000C23D0000CE
:1004300000000000C240000000000000C2400000B8
:10044000000000000040000000000000004000002C
:1004500000000000C240000000000000C240000098
:10046000000000000040000000000000004000000C
:1004700000000000C248000000000000C248000068
:1004800000000000C248000000000000C248000058
:1004900000000000C248000000000000C248000048
:1004A00000000000C248000000000000C248000038
:1004B00000000000FF6303F061C2240000000000A0
:1004C00061C22400000000000000240000000000C1
:1004D0000000000000000000F361C2000000000006
:1004E0000061C200000000000000C2000000000027
:1004F0000000C2000000000000F048812800000059
:10050000000048812800000000004800280000008A
:1005100000004800000000000000F34091000000CF
:1005200000000040910000000000003D910000002C
:100530000000003D912B0000000000F036C23000AA
:100540000000000036C2300000000000360030001D
:10055000000000003600000000000000F361C2004F
:10056000000000000000C200000000000061000068
:1005700000000000000000000000000000F04891B2
:100580000000000000004891000000000000009101
:1005900030000000000000912D0000000000F36D0D
:1005A000913000000000006D91300000000000005C
:1005B000910000000000000091000000000000F029
:1005C000486136000000000048613600000000006D
:1005D0004861300000000000F348612D0000000079
:1005E00000F3486130000000000048613000000066
:1005F000000048613600000000004861360000003D
:100600000000F051512800000000000051280000B7
:10061000000000C251280000000000005128000026
:10062000000000F3AD51280000000000AD5128008B
:1006300000000000005128000000000000512800C8
:1006400000000000F0915B300000000000915B3082
:100650000000000000005B300000000000F3005BC1
:10066000300000000000F3405B0000000000004884
:100670005B000000000000515B0000000000000073
:100680005B000000000000F091610000000000002D
:100690009161000000000000916100000000000076
:1006A0009161000000000000F39161000000000073
:1006B000009161000000000000F391610000000063
:1006C00000009161000000000000FF6303F061C2C0
:1006D00000000000000061C20000000000000000F7
:1006E0000000000000000000000000000000F461B5
:1006F000C200000000000061C20000000000000015
:10070000C200000000000000C2000000000000F075
:100710004881000000000000488100000000000047
:100720004800000000000000480000000000000039
:100730004091000000000000409100000000000017
:100740003D910000000000003D910000000000000D
:1007500036C200000000000036C2000000000000A9
:10076000360000000000000036000000000000001D
:1007700061C200000000000000C200000000000094
:100780006100000000000000000000000000000008
:1007900048910000000000004891000000000000A7
:1007A0000091000000000000009100000000000027
:1007B0006D910000000000006D910000000000003D
:1007C0000091000000000000009100000000000007
:1007D00048610000000000004861000000000000C7
:1007E00048610000000000004861000000000000B7
:1007F00048610000000000004861000000000000A7
:100800004861000000000000486100000000000096
:10081000F0515100000000000000510000000000F5
:1008200000C2510000000000000051000000000064
:1008300000F3AD51000000000000AD5100000000C9
:100840000000005100000000000000510000000006
:100850000000F0915B000000000000915B000000D0
:10086000000000005B000000000000005B000000D2
:10087000000000F3405B000000000000485B000047
:1008800000000000515B000000000000005B000061
:1008900000000000F0916100000000000091610084
:1008A0000000000000916100000000000091610064
:1008B0000000000000F39161000000000000916161
:1008C000000000000000F4916100000000000091B1
:1008D00061000000000000FF6303F0C24800000058
:1008E000000000C2480000000000000048000000B6
:1008F0000000000048000000000000F2C2480000B4
:1009000000000000C2480000000000000048000095
:10091000000000000048000000000000F0914000CE
:1009200000000000009140000000000000913D0028
:100930000000000000913D000000000000F2913630
:1009400000000000000091360000000000000036AA
:100950000000000000000036000000000000F4006D
:1009600040000000000000F09A400000000000007D
:1009700000400000000000000040000000000000F7
:10098000F7C23D000000000000C23D000000000072
:1009900000C23D000000000000C23D000000000059
:1009A00000F0C23D000000000000C23D0000000059
:1009B0000000003D000000000000003D00000000BD
:1009C0000000F3C236000000000000C23600000044
:1009D00000000000360000000000000036000000AB
:1009E000000000F291400000000000009140000073
:1009F0000000000091400000000000009140000055
:100A000000000000F0913600000000000091360068
:100A1000000000000000360000000000000036006A
:100A20000000000000F4003D000000000000F09A0B
:100A30003D000000000000003D000000000000003C
:100A40003D000000000000F3C23D00000000000077
:100A5000C23D000000000000C23D00000000000098
:100A6000C23D000000000000F3C240000000000092
:100A700000C2400000000000000040000000000034
:100A8000000040000000000000F0C2400000000034
:100A90000000C240000000000000F3004000000021
:100AA0000000000040000000000000F0913D000048
:100AB00000000000913D000000000000913D00009A
:100AC00000000000913D000000000000F3913D0097
:100AD0000000000000913D000000000000003D000B
:100AE0000000000000003D000000000000FF630364
:100AF000F0C261240000000000C261240000000078
:100B000000006124000000000000612400000000DB
:100B100000F0C261200000000000C261200000005F
:100B20000000F300612000000000000061200000D0
:100B300000000091482000000000009148200000C3
:100B4000000000A351200000000000A3512000007D
:100B5000000000F0914820000000000091482000B3
:100B60000000000091482000000000009148200093
:100B700000000000F3913D1E0000000000913D1EAA
:100B80000000000000914018000000000091401893
:100B9000000000000091481B000000000091481B6D
:100BA000000000000091481E000000000091481E57
:100BB0000000000000F061402000000000006140E3
:100BC00020000000000000002000000000000000E5
:100BD000200000000000F0614020000000000061E3
:100BE00040200000000000F3004020000000000052
:100BF00000402000000000007A3D1B0000000000C3
:100C00007A3D1B00000000000036160000000000C6
:100C10000036160000000000F081301800000000CF
:100C200000813018000000000000301B00000000B0
:100C30000000301B0000000000F348361E000000DA
:100C4000000048391E0000000000483D1E00000062
:100C50000000483D1E0000000000F348401E000058
:100C600000000048401E000000000048401E000038
:100C700000000048401E0000000000F07A3D240003
:100C8000000000007A3D2400000000007A3D2400AE
:100C9000000000007A3D240000000000F07A3D24AE
:100CA00000000000007A3D240000000000F37A3DBF
:100CB0002400000000007A3D240000000000F061E4
:100CC0004030000000000061403000000000006182
:100CD000403000000000006140300000000000F0E3
:100CE0006140300000000000614030000000000062
:100CF0006140300000000000614030000000000052
:100D0000FF6303C261000000000000C26100000038
:100D10000000000061000000000000006100000011
:100D2000000000F0C261240000000000C261240045
:100D300000000000006124000000000000612400A9
:100D400000000000914824000000000091482400A9
:100D500000000000A351240000000000A351240063
:100D600000000000F0914824000000000091482499
:100D70000000000000914824000000000091482479
:100D80000000000000F3913D240000000000913DB0
:100D90002400000000009140240000000000914069
:100DA000240000000000914830000000000091483D
:100DB0003000000000009148300000000000914821
:100DC000300000000000F0C240240000000000C21B
:100DD000402400000000000000200000000000008F
:100DE00000200000000000F0C2401E0000000000D3
:100DF000C2401E0000000000F300401E0000000082
:100E00000000401E0000000000913D200000000096
:100E100000913D200000000000A3362000000000EB
:100E200000A336200000000000F0913024000000F4
:100E300000009130240000000000913026000000E6
:100E400000009130260000000000F391362D0000D4
:100E500000000091392D0000000000913D260000A7
:100E6000000000913D260000000000F3C240300069
:100E700000000000C24030000000000000403000D0
:100E8000000000000040300000000000F0C24024DC
:100E90000000000000C240240000000000004024C8
:100EA00000000000000040240000000000F091401D
:100EB0001E000000000091401E0000000000F3A38F
:100EC000401E0000000000A3401E0000000000C201
:100ED0003D260000000000C23D260000000000C2C8
:100EE00040260000000000C240260000000000F084
:100EF000C248000000000000C248000000000000DE
:100F0000C248000000000000C248000000000000CD
:100F1000FF6303F0C261240000000000C2612400EE
:100F200000000000006124000000000000612400B7
:100F300000000000F0C261240000000000C2612433
:100F40000000000000F300612400000000000061C8
:100F50002400000000009148240000000000914897
:100F6000240000000000A351240000000000A35151
:100F7000240000000000F091481E000000000091D5
:100F8000481E000000000091481B00000000009176
:100F9000481B0000000000F3913D18000000000015
:100FA000913D180000000000914018000000000072
:100FB0009140180000000000914818000000000057
:100FC000914818000000000091481800000000003F
:100FD0009148180000000000F0C2401B0000000013
:100FE00000C2401B000000000000001E00000000C6
:100FF0000000001E0000000000F0C24020000000C1
:101000000000C240200000000000F300402000006B
:101010000000000040200000000000913D20000082
:10102000000000913D200000000000A336200000D9
:10103000000000A336200000000000F091301E00E8
:101040000000000091301E000000000091301E00E2
:101050000000000091301E0000000000F391361ED9
:10106000000000000091391E0000000000913D1EAC
:101070000000000000913D1E0000000000F3C2408F
:101080001E0000000000C2401E00000000000040E2
:101090002000000000000040000000000000F0C23E
:1010A00040200000000000C24000000000000000DE
:1010B000400000000000000040000000000000F0C0
:1010C0009140260000000000914000000000000058
:1010D000F3A340240000000000A340000000000033
:1010E00000C23D000000000000C23D000000000002
:1010F00000C240000000000000C2400000000000EC
:1011000000F0C248260000000000C248260000008F
:101110000000C248260000000000C248260000006F
:101120000000FF6303F0C261000000000000C26124
:1011300000000000000000610000000000000061ED
:10114000000000000000F0C261000000000000C2CA
:1011500061000000000000006100000000000000CD
:1011600061000000000000F0914800000000000055
:101170009148000000000000F3A3510000000000AF
:1011800000A351000000000000F0914800000000A2
:10119000000091480000000000009148000000009D
:1011A00000009148000000000000913D0000000098
:1011B0000000913D00000000000091400000000090
:1011C0000000914000000000000091480000000075
:1011D000000091480000000000009148000000005D
:1011E00000009148000000000000F0C24000000034
:1011F000000000C2400000000000000040000000AD
:101200000000000040000000000000F0C2400000AC
:1012100000000000C240000000000000004000008C
:10122000000000000040000000000000F0913D00C0
:101230000000000000913D000000000000F3A33614
:10124000000000000000A336000000000000F09144
:10125000300000000000009130000000000000910C
:1012600030000000000000913000000000000091FC
:1012700036000000000000913900000000000091DD
:101280003D000000000000913D000000000000F063
:10129000C240000000000000C2400000000000004A
:1012A00000400000000000000040000000000000BE
:1012B000F0C240000000000000C24000000000003A
:1012C000000040000000000000004000000000009E
:1012D00000F091400000000000009140000000007C
:1012E0000000F3A340000000000000A34000000045
:1012F000000000F0C23D000000000000C23D000000
:1013000000000000C240000000000000C2400000D9
:1013100000000000C248000000000000C2480000B9
:1013200000000000C248000000000000C2480000A9
:1013300000000000FF6303C261000000000000C263
:1013400061000000000000006100000000000000DB
:1013500061000000000000C261000000000000C247
:1013600061000000000000006100000000000000BB
:1013700061000000000000914800000000000091A2
:1013800048000000000000A351000000000000A37E
:101390005100000000000091480000000000009192
:1013A000480000000000009148000000000000918B
:1013B00048000000000000913D0000000000009186
:1013C0003D0000000000009140000000000000917E
:1013D0004000000000000091480000000000009163
:1013E000480000000000009148000000000000914B
:1013F00048000000000000614000000000000061A3
:10140000400000000000000040000000000000005C
:10141000400000000000006140000000000000618A
:10142000400000000000000040000000000000003C
:10143000400000000000007A3D0000000000007A3B
:101440003D00000000000000360000000000000029
:101450003600000000000081300000000000008124
:10146000300000000000000030000000000000001C
:101470003000000000000048360000000000004876
:1014800039000000000000483D0000000000004856
:101490003D0000000000004840000000000000483F
:1014A000400000000000004840000000000000482C
:1014B000400000000000007A3D0000000000007ABB
:1014C0003D0000000000007A3D0000000000007AAE
:1014D0003D0000000000007A3D0000000000007A9E
:1014E0003D0000000000007A3D0000000000007A8E
:1014F0003D000000000000614000000000000061AD
:101500004000000000000061400000000000006199
:101510004000000000000061400000000000006189
:101520004000000000000061400000000000006179
:1015300040000000000000FF11241FBECFEFD8E0E4
:10154000DEBFCDBF21E0A0E0B1E001C01D92A63218
:10155000B207E1F70E94170D0C94270D0C940000C0
:10156000E091020121E02E0FF0E0EE0FFF1FE8599D
:10157000FF4F85919491009711F4E0E0F3CF209311
:101580000201FC0124913196E49130E03E2B30932E
:1015900004012093030102969093010180930001BE
:1015A0000895F89410920C01109206011092050112
:1015B0001092020110920A01109209011092080182
:1015C00083E080930701E5E1F1E0ADE0B1E0119245
:1015D0001D9281E0ED31F807D1F70E94B00A579AC9
:1015E0001092B0001092B1001092B2008091B00041
:1015F00082608093B0008091B10082608093B100DE
:10160000809170008260809370008DE98093B300B8
:10161000789408951F920F920FB60F9211242F9372
:101620003F934F935F938F939F9380910C018BB95E
:101630008091050190910601892B49F08091050167
:1016400090910601019790930601809305011092F5
:101650000C0120910A01211181C090910D01992363
:1016600061F0809115018150809315018F3F29F41D
:1016700080E880930C019093150190910E019923BD
:1016800061F0809116018150809316018F3F29F4FB
:1016900080E880930C019093160190910F0199239B
:1016A00061F0809117018150809317018F3F29F4D9
:1016B00080E880930C019093170190911001992379
:1016C00061F0809118018150809318018F3F29F4B7
:1016D00080E880930C019093180190911101992357
:1016E00061F0809119018150809319018F3F29F495
:1016F00080E880930C019093190190911201992335
:1017000061F080911A01815080931A018F3F29F472
:1017100080E880930C0190931A0190911301992312
:1017200061F080911B01815080931B018F3F29F450
:1017300080E880930C0190931B01909114019923F0
:10174000A1F180911C01815080931C018F3F69F5AC
:1017500080E880930C0190931C0127C050910901EF
:101760004091080130910701842F8527832790E05D
:1017700000900B0102C0959587950A94E2F780FFCF
:1017800003C080E880930C015D5F5093090120FF46
:1017900003C04E5E40930801822F837019F43F5FAF
:1017A00030930701215020930A019F918F915F91FF
:1017B0004F913F912F910F900FBE0F901F90189552
:1017C000C7EFD0E8E0910001F0910101E491EF3F13
:1017D00039F40E94B00AE0910001F0910101E49116
:1017E000809103019091040190930601809305017B
:1017F000E03F78F08C2F8E1B80930B01D0930A0171
:1018000080910001909101010196909301018093D4
:1018100000018091000190910101FC01249120932D
:101820000D013196E491E0930E01FC013296E491B2
:10183000E0930F01FC013396E491E0931001FC0169
:101840003496E491E0931101FC013596E491E09324
:101850001201FC013696E491E0931301FC013796E6
:10186000E491E093140108969093010180930001A4
:101870008091050190910601892B09F4A3CF61E0C5
:1018800070E080E090E00E94B30CF2CF1F920F92C4
:101890000FB60F9211242F933F938F939F93AF9383
:1018A000BF9380911E0190911F01A0912001B091E2
:1018B000210130911D0123E0230F2D3720F40196E3
:1018C000A11DB11D05C026E8230F0296A11DB11D63
:1018D00020931D0180931E0190931F01A09320016E
:1018E000B09321018091220190912301A0912401C4
:1018F000B09125010196A11DB11D80932201909305
:101900002301A0932401B0932501BF91AF919F9132
:101910008F913F912F910F900FBE0F901F901895B0
:101920003FB7F8948091220190912301A091240166
:10193000B091250126B5A89B05C02F3F19F001964F
:10194000A11DB11D3FBF6627782F892F9A2F620FE7
:10195000711D811D911D42E0660F771F881F991F21
:101960004A95D1F70895CF92DF92EF92FF92CF93ED
:10197000DF936B017C010E94900CEB01C114D10438
:10198000E104F10489F00E94260D0E94900C6C1B6A
:101990007D0B683E734090F381E0C81AD108E108DE
:1019A000F108C851DC4FEACFDF91CF91FF90EF9063
:1019B000DF90CF900895789484B5826084BD84B51B
:1019C000816084BD85B5826085BD85B5816085BD3A
:1019D000EEE6F0E0808181608083E1E8F0E0108253
:1019E000808182608083808181608083E0E8F0E094
:1019F000808181608083E1EBF0E08081846080837E
:101A0000E0EBF0E0808181608083EAE7F0E08081B4
:101A10008460808380818260808380818160808314
:101A20008081806880831092C100089508950E948B
:101A3000DB0C0E94160D0E94D10AC0E0D0E00E948B
:101A4000E00B2097E1F30E940000F9CF0895F8948D
:021A5000FFCFC6
:00000001FF
